:02000000D92BFA
:10030200F0007008403E84008313000883129300BB
:100312000C3095000800F100F11F902991299529D0
:100322008312C801C80A97298312C8010800003441
:100332001E343C345A3478349634B434C8340134DC
:100342001F34443448344E34BE34CC348316051240
:1003520083120512AC29831605160530F000F00B46
:10036200B02900308312051A0130D3002130F00089
:10037200F00BB929BC298312530808008316051211
:1003820083120512BF30F000C629F00BC529C92916
:10039200CA29831605164F30F000F00BCE29D12959
:1003A2008312051ED529D629D1290800F10083160A
:1003B200051283120512DD2971080319E129E229C8
:1003C200EA29831605162730F000F00BE629E92901
:1003D200F1292730F000F00BEC29EF2983160516DE
:1003E2000800F500F301F40175080139D7217508F9
:1003F200F2000310720CF5000130F3070318F40A3F
:100402000030F4077408803AFF0080307F02031D39
:100412000C2A08307302031C0F2A102AF52908003F
:10042200F401F201F3017408F1000310710CF400FD
:10043200A721013903191E2A1F2A222A740880388B
:10044200F4000130F2070318F30A0030F3077308CF
:10045200803AFF0080307F02031D312A0830720289
:10046200031C342A352A142A740808009B22BF214F
:10047200CC30F2214430F2218312051E412A422A55
:100482003D2ABF21CC30F221BE30F2211122FD00E3
:1004920011228312D100BF217D08F000831251087E
:1004A2008C217D08F10083125108DF22153083125E
:1004B200D7004B30D600BE30D500D50B5E2AD60B06
:1004C2005E2AD70B5E2A0000382A0028F800603026
:1004D2007804F6000030F7007F3076067704031DBB
:1004E200732A742A9A2ABF21CC30F2214E30F2218B
:1004F200F901FA011F30F2210130F9070318FA0A53
:100502000030FA077A08803AFF0080307F02031D2C
:100512008C2A03307902031C8F2A902A7B2ABF215E
:10052200CC30F2214830F2218312051E992A9A2AF0
:10053200952A080083169F010C308500831205104E
:10054200851005128512803083168100C8308B0019
:100552008312851683160515C73092000C3083125C
:1005620095001E3093008C01920112158C1CBA2A40
:10057200BB2AB72A83160511BF21CC30F221BE3027
:10058200F221FB01FC0111228312D2000130FB0790
:100592000318FC0A0030FC077C08803AFF00803018
:1005A2007F02031DD62A05307B02031CD92ADA2AD0
:1005B200C42ABF218312520867220800F70071087B
:1005C200F20004300310F20CFF3E031DE32A72080E
:1005D200F300F40177080739F500F601F50EF60E7F
:1005E200F030F60575080F39F604F030F50573089A
:1005F20075048312CF0074087604D0005008803A44
:10060200FF0080307F02031D082B1E304F02031CA7
:100612000B2B0C2B122B83124808031D112B122BB0
:10062200142B0030812183125008803AFF00803061
:100632007F02031D1E2B1E304F02031C212B222B77
:10064200322B83125008803AFF0080307F02031D54
:100652002C2B23304F0203182F2B302B322B01303F
:10066200812183125008803AFF0080307F02031DEF
:100672003C2B23304F02031C3F2B402B502B831269
:100682005008803AFF0080307F02031D4A2B283039
:100692004F0203184D2B4E2B502B02308121831217
:1006A2005008803AFF0080307F02031D5A2B283009
:1006B2004F02031C5D2B5E2B6E2B83125008803A77
:1006C200FF0080307F02031D682B2D304F0203187C
:1006D2006B2B6C2B6E2B0330812183125008803AD6
:1006E200FF0080307F02031D782B2D304F02031C48
:1006F2007B2B7C2B8C2B83125008803AFF0080309E
:100702007F02031D862B32304F020318892B8A2B5E
:100712008C2B0430812183125008803AFF008030F4
:100722007F02031D962B32304F02031C992B9A2B0A
:10073200AA2B83125008803AFF0080307F02031DEB
:10074200A42B37304F020318A72BA82BAA2B053056
:10075200812183125008803AFF0080307F02031DFE
:10076200B42B37304F02031CB72BB82BC82B831284
:100772005008803AFF0080307F02031DC22B3C30BC
:100782004F020318C52BC62BC82B063081218312BA
:100792005008803AFF0080307F02031DD22B3C308C
:1007A2004F02031CD52BD62BD82B073081210800F2
:1007B2009821C0009921C1009A21C2009B21C30047
:1007C2009C21C4009D21C5009E21C6009F21C70017
:1007D200A021C800A121C900A221CA00A321CB00E7
:1007E200A421CC00A521CD00A621CE00CF01D001AD
:0E07F200D101D201D301D401FD018301372AC8
:02400E00C43CB0
:00000001FF
